S0100000566F7465723242322E737265635E
S315080000000000082485960008C98A0008CB8A0008DB
S31508000010CD8A0008CF8A0008D18A000800000000AF
S31508000020000000000000000000000000512D0190B3
S31508000030D38A000800000000E12D0190452E0190AA
S31508000040D5960008D5960008D5960008D5960008D6
S31508000050D5960008D5960008D5960008D5960008C6
S31508000060D5960008D5960008D5960008D98A0008BE
S31508000070F18A0008098B0008218B0008498B0008C3
S31508000080618B0008798B0008D5960008D59600087C
S31508000090D5960008D5960008D5960008D596000886
S315080000A0D5960008D5960008D5960008D596000876
S315080000B0918B0008D5960008D5960008B98B0008DC
S315080000C0D5960008D5960008D5960008D596000856
S315080000D0D18B0008E98B0008D5960008018C00082A
S315080000E0D5960008D596000800000000D5960008A9
S315080000F0D5960008D5960008D5960008118C0008F4
S31508000100D5960008D5960008D5960008298C0008CB
S31508000110418C0008D5960008D5960008598C000829
S31508000120818C0008998C0008B18C0008C98C0008DD
S31508000130E18C0008F98C0008118D0008D596000896
S3150800014000000000000000000000000000000000A1
S31508000150198D0008318D0008498D0008D5960008CC
S31508000160D5960008D5960008D5960008D5960008B5
S31508000170D5960008D5960008D5960008D5960008A5
S31508000180D5960008D5960008618D0008798D000877
S31508000190D5960008D5960008D5960008D596000885
S315080001A0D5960008D5960008D5960008D596000875
S315080001B0D5960008D5960008D5960008D596000865
S315080001C0D5960008D5960008D5960008D596000855
S315080001D0D5960008D5960008D5960008D596000845
S315080001E0D5960008D5960008D5960008D596000835
S315080001F0D5960008D5960008D5960008D596000825
S31508000200D5960008D5960008D5960008D596000814
S31508000210D5960008D5960008D5960008D596000804
S31508000220D5960008D5960008D59600080000000067
S31508000230D5960008D596000800000000D596000857
S31508000240D5960008D5960008D5960008D5960008D4
S31508000250D5960008D5960008D5960008D5960008C4
S31508000260D5960008D5960008D5960008D5960008B4
S31508000270D5960008D5960008D59600080000000017
S31508000280D5960008D5960008D59600080000000007
S30D0800029000000000D5960008E5
S31508000298F8B500BFF8BC08BC9E467047F8B500BF5D
S30D080002A8F8BC08BC9E4670472D
S315080002B010B5054C237833B9044B13B10448AFF392
S315080002C000800123237010BDB80D00240000000033
S315080002D09802000808B5034B1BB103490348AFF35E
S315080002E0008008BD00000000BC0D0024980200082C
S315080002F010F8012B11F8013B012A28BF9A42F7D0C2
S31508000300D01A7047034613F8012B002AFBD1181A96
S3150800031001387047000000000000000000000000DF
S3150800032001F0FF01102A2BDB10F0070F08D010F898
S31508000330013B013A8B422DD010F0070F42B3F6D19C
S31508000340F0B441EA012141EA014122F007047FF0B5
S3150800035000070023F0E80256083C85EA010586EA0C
S31508000360010685FA47F5A3FA87F586FA47F6A5FA48
S3150800037087F68EB9EED1F0BC01F0FF0102F0070254
S3150800038032B110F8013B013A83EA010313B1F8D1FF
S315080003900020704701387047002D06BF35460338E0
S315080003A0073815F0010F07D1013015F4807F02BF19
S315080003B0013015F4C03F0130F0BC0138704700BF6A
S315080003C081F0004102E000BF83F0004330B54FEAF8
S315080003D041044FEA430594EA050F08BF90EA020F65
S315080003E01FBF54EA000C55EA020C7FEA645C7FEAF8
S315080003F0655C00F0E2804FEA5454D4EB5555B8BF1B
S315080004006D420CDD2C4480EA020281EA030382EA8B
S31508000410000083EA010180EA020281EA0303362D1D
S3150800042088BF30BD11F0004F4FEA01314FF4801CF0
S315080004304CEA113102D0404261EB410113F0004F02
S315080004404FEA03334CEA133302D0524263EB4303B9
S3150800045094EA050F00F0A780A4F10104D5F1200E57
S315080004600DDB02FA0EFC22FA05F2801841F10001B2
S3150800047003FA0EF2801843FA05F359410EE0A5F186
S3150800048020050EF1200E012A03FA0EFC28BF4CF0B7
S31508000490020C43FA05F3C01851EBE37101F000456D
S315080004A007D54FF0000EDCF1000C7EEB00006EEB7A
S315080004B00101B1F5801F1BD3B1F5001F0CD3490804
S315080004C05FEA30004FEA3C0C04F101044FEA44525B
S315080004D012F5800F80F09A80BCF1004F08BF5FEAE2
S315080004E0500C50F1000041EB045141EA050130BDC2
S315080004F05FEA4C0C404141EB0101013C28BFB1F5D4
S31508000500801FE9D291F0000F04BF01460020B1FA1E
S3150800051081F308BF2033A3F10B03B3F120020CDAF1
S315080005200C3208DD02F1140CC2F10C0201FA0CF0CF
S3150800053021FA02F10CE002F11402D8BFC2F1200C34
S3150800054001FA02F120FA0CFCDCBF41EA0C019040EA
S31508000550E41AA2BF01EB0451294330BD6FEA040433
S315080005601F3C1CDA0C340EDC04F11404C4F120021E
S3150800057020FA04F001FA02F340EA030021FA04F330
S3150800058045EA030130BDC4F10C04C4F1200220FA87
S3150800059002F001FA04F340EA0300294630BD21FAC5
S315080005A004F0294630BD94F0000F83F4801306BF8B
S315080005B081F480110134013D4EE77FEA645C18BF7F
S315080005C07FEA655C29D094EA050F08BF90EA020F16
S315080005D005D054EA000C04BF1946104630BD91EA0E
S315080005E0030F1EBF0021002030BD5FEA545C05D111
S315080005F04000494128BF41F0004130BD14F5800450
S315080006003CBF01F5801130BD01F0004545F0FE41C3
S3150800061041F470014FF0000030BD7FEA645C1ABFF8
S31508000620194610467FEA655C1CBF0B46024650EA2F
S31508000630013406BF52EA033591EA030F41F400215B
S3150800064030BD00BF90F0000F04BF0021704730B5E1
S315080006504FF4806404F132044FF000054FF00001B6
S3150800066050E700BF90F0000F04BF0021704730B577
S315080006704FF4806404F1320410F0004548BF40424C
S315080006804FF000013EE700BF42004FEAE2014FEAA1
S3150800069031014FEA02701FBF12F07F4393F07F4F7C
S315080006A081F06051704732F07F4208BF704793F07F
S315080006B07F4F04BF41F40021704730B54FF4607492
S315080006C001F0004521F000411CE700BF50EA010295
S315080006D008BF704730B54FF000050AE050EA01023E
S315080006E008BF704730B511F0004502D5404261EBAE
S315080006F041014FF4806404F132045FEA915C3FF4EF
S31508000700D8AE4FF003025FEADC0C18BF03325FEA8B
S31508000710DC0C18BF033202EBDC02C2F1200300FA3C
S3150800072003FC20FA02F001FA03FE40EA0E0021FA61
S3150800073002F11444BDE600BF7BB972B90029BEBFF9
S3150800074000204FF0004106E008BF00281CBF6FF0EC
S3150800075000414FF0FF3000F0F3B9ADF1080C6DE938
S3150800076004CE002909DB002B1ADB00F06DF8DDF852
S3150800077004E0DDE9022304B07047404261EB410121
S31508000780002B1BDB00F060F8DDF804E0DDE902234E
S3150800079004B0404261EB4101524263EB43037047A8
S315080007A0524263EB430300F04FF8DDF804E0DDE95D
S315080007B0022304B0404261EB41017047524263EBA9
S315080007C0430300F041F8DDF804E0DDE9022304B054
S315080007D0524263EB4303704753B94AB9002908BF2D
S315080007E000281CBF4FF0FF314FF0FF3000F0A8B9CA
S315080007F0ADF1080C6DE904CE00F026F8DDF804E04A
S31508000800DDE9022304B070479FED0B6B41EC170B33
S315080008109FED0B5B27EE066BBCEEC66BB8EE464B40
S31508000820A4EE457BFCEEC77B16EE101A17EE900A6F
S31508000830704700BFAFF30080000000000000F03DE5
S31508000840000000000000F0412DE9F047089D8E46A3
S3150800085004468846002B4AD18A42174662D9B2FA1C
S3150800086082F64EB1C6F1200301FA06F820FA03F320
S31508000870B74043EA0808B4404FEA174E1FFA87FC08
S31508000880B8FBFEF1230C0EFB118843EA084301FB73
S315080008900CF29A4209D9FB1801F1FF3080F0EA8080
S315080008A09A4240F2E78002393B449A1AA3B2B2FB55
S315080008B0FEF00EFB102243EA024300FB0CFC9C45AB
S315080008C009D9FB1800F1FF3280F0D6809C4540F22A
S315080008D0D3803B44023840EA0140A3EB0C030021D5
S315080008E01DB1F3400022C5E90032BDE8F0878B420E
S315080008F005D90DB1C5E9000100210846F5E7B3FAA7
S3150800090083F1002946D1734502D3824200F205815C
S31508000910841A6EEB030201209046002DE5D0C5E946
S315080009200048E2E7002A00F09080B2FA82F6002E2C
S3150800093040F0A4808A1A030C4FEA174E80B2BCB264
S315080009400121B2FBFEFC0EFB1C2243EA024304FB18
S315080009500CF29A4207D9FB180CF1FF3802D29A42D8
S3150800096000F2E080C4469B1AB3FBFEF20EFB12337C
S3150800097040EA034302FB04F49C4207D9FB1802F140
S31508000980FF3002D29C4200F2CA8002461B1B42EA92
S315080009900C40A5E7C1F120068B4022FA06F71F4353
S315080009A00EFA01F420FA06F32EFA06FE4FEA174964
S315080009B0234300FA01F81FFA87FCBEFBF9F01C0C6A
S315080009C009FB10EE44EA0E4400FB0CFEA64502FAAB
S315080009D001F209D93C1900F1FF3A80F09C80A6453E
S315080009E040F2998002383C44A4EB0E041FFA83FEB9
S315080009F0B4FBF9F309FB13444EEA044403FB0CFC6D
S31508000A00A44508D93C1903F1FF3E80F08280A4452D
S31508000A107FD9023B3C4443EA0040A4EB0C04A0FB0C
S31508000A2002EC64457346E14662D35FD05DB1B8EB2C
S31508000A30030264EB090404FA06F622FA01F31E43DC
S31508000A40CC40C5E9006400214FE7B1FBF2FC010C7C
S31508000A5041EA0E4180B240EA01423B4638463C46EE
S31508000A60B846BE462026B1FBF7F1A2EB080241EADA
S31508000A700C4166E7014618E710462CE7C6F1200246
S31508000A802EFA02F3B740B14020FA02F24FEA174EA7
S31508000A900A43B3FBFEF8BCB20EFB1833110C41EA4D
S31508000AA0034108FB04F9B04089454FEA104380B278
S31508000AB03ED9791808F1FF3C01D289451FD8A1EB28
S31508000AC00901B1FBFEF909FB04F80EFB191192B2F4
S31508000AD042EA0142424529D2BA1809F1FF31C4D285
S31508000AE04245C2D2A9F102013A44BEE7F0459DD279
S31508000AF0BEEB02036CEB070C0138E14696E7A7EB61
S31508000B0009094944A8F1020CB1FBFEF909FB04F8EE
S31508000B10DBE773467FE7504666E70846FDE63B4453
S31508000B20023A33E7ACF1020C3B441CE749469CE722
S31508000B30A1EB0901C446B1FBFEF909FB04F8C4E7B9
S30908000B40704700BF2D
S30708000B447047EA
S31508000B4810B50022064C4FF400631146204600F003
S31508000B580BF820460021BDE8104000F009B800BF90
S31508000B6868770024000000005FF800F047EC019061
S30D08000B785FF800F0F1EB0190B3
S31508000B8010B5074C10214FF400630022204600F0F0
S31508000B900FF820461021BDE8104000F005B800BF48
S31508000BA068770024000000005FF800F0F1EB019080
S30D08000BB05FF800F047EC019024
S31508000BB8054A064B518C928C196000219A60FF22CF
S31508000BC85960DA60704700BF9029002400000024A5
S31508000BD810B50021484800F0ABF80121464800F056
S31508000BE8A7F8464C0021464800F0A2F801214448D7
S31508000BF800F09EF86379012B26D00123A0682268A5
S31508000C08637102233C4923713E4BC3633E4B03641D
S31508000C183E4BC364136843F480531360136843F464
S31508000C28005342F8203B4FF4A07300F07DF80023E8
S31508000C386371002853D123681A6842F001021A60C2
S31508000C481A6842F480321A60314C4FF4A07231495E
S31508000C58314800F071F805223049204600F06CF852
S31508000C68E36C2F4A1B6893422DD0183293422AD038
S31508000C781832934227D01832934224D01832934216
S31508000C8821D0183293421ED0183293421BD01832FC
S31508000C98934218D002F55672934214D018329342EA
S31508000CA811D0183293420ED0183293420BD018320C
S31508000CB8934208D01832934205D01832934202D08C
S31508000CC81832934210D11A6822F010021A601A686C
S31508000CD822F008021A60BDE81040FFF769BF2369C9
S31508000CE843F004032361AFE71A6822F002021A6088
S31508000CF81A6822F00402EDE70CD000306877002461
S31508000D088CD2003071EC019081EC01908DEC019049
S31508000D18F47800240CD500305879002400D0003027
S31508000D2810000240000000005FF800F051F501903D
S31508000D385FF800F0D50E00005FF800F065E2019054
S31508000D480C4A014608B55088012913880344908837
S31508000D580344D0881289034413444FF00502B3FBB1
S31508000D68F2F398B205D102220349184605F0E6FAC5
S31108000D7880B208BD00D000300000002446
S31508000D88044B834205D1044B04481B68996B00F051
S31508000D9807B8704758790024287300244CD60030C1
S30D08000DA85FF800F0050A0000DF
S31508000DB0044B834205D1044B04481B68996B00F029
S31508000DC007B8704758790024287300240CD50030DA
S30D08000DD05FF800F0050A0000B7
S31508000DD8044B834205D1044B04481B68996B00F001
S31508000DE807B8704768770024287300248CD2003027
S30D08000DF85FF800F00513000086
S31508000E00044B834205D1044B04481B68996B00F0D8
S31508000E1007B8704768770024287300240CD0003080
S30D08000E205FF800F0051300005D
S31508000E28F0B585B0002309220A2701AC019363604F
S31508000E38C4F80730002918BF1346B1FBF7F607FBB5
S31508000E48161531463035A554013AF3D1E11809F09B
S30B08000E584FFD05B0F0BDD8
S31508000E6030B58BB00446282200216846224D09F089
S31508000E703BFD002C3AD1214968460AF0B8FB29699E
S31508000E806846FFF7D1FF1E49684609F035FD1D4C37
S31508000E9069691D4803F0FCF969461C4800F040F8EA
S31508000EA02146686900F04CF8012223466846114637
S31508000EB000F03AF8204600F03FF8154B18602389F1
S31508000EC01048012B1CBF0623638100F03DF8638997
S31508000ED04BB90C4800F02CF8638923B90D4A136006
S31508000EE001220D4B1A6000200BB030BD2822214686
S31508000EF0684605F01DFACAE790290024B0A30290B7
S31508000F00BDA30290DC0D002483050390C2A30290C2
S31508000F10D80D0024D40D00248419002400000000F4
S31508000F205FF800F0596C02905FF800F001960290A5
S31508000F305FF800F0E59702905FF800F0919602904E
S31508000F405FF800F0A99502905FF800F0D998029032
S31508000F5070B5134D134E2B683268934204DA124A61
S31508000F60D05C01332B6009E0B2F5007F07DA002474
S31508000F700E4B0F481C6000F01FF8204670BD0C4C45
S31508000F80204600F021F83060204600F019F8638901
S31508000F9013B9204600F01CF8064B18790123E1E73F
S31508000FA0D40D0024D80D0024F8290024841900241F
S31508000FB0DC0D0024F42900245FF800F0BD980290A7
S31508000FC05FF800F0D99802905FF800F091960290C9
S30D08000FD05FF800F0E5970290B6
S31508000FD81FB5D3B204460293C2F307230193C2F39B
S31508000FE807430093130E0A46044909F0ABFB20464B
S31508000FF804B0BDE81040FFF781B900BFD6A3029038
S3150800100810B5044613460A46034909F09BFB2046D1
S31108001018BDE81040FFF772B9EEA3029085
S3150800102438B50C2504466A439B580A46034909F011
S315080010348BFB2046BDE83840FFF762B9F9A3029056
S3150800104410B5044613460A46034909F07DFB2046B3
S31108001054BDE81040FFF754B9F9A302905C
S315080010602DE9F04F9FB018220021044601A809F087
S315080010703BFC2822002107A809F036FC3222002171
S3150800108011A809F031FCA64BD3F80090B9F1000F6E
S3150800109006D1A44800F08CF948461FB0BDE8F08F89
S315080010A0A14E002C4FD1A14907A80AF0A0FA316930
S315080010B007A8FFF7B9FE9E4907A809F01DFC716944
S315080010C09C4803F0E5F807A99B4800F071F901A9C7
S315080010D0706900F071F901AB0122022107A800F03E
S315080010E063F901A800F070F9BDF80C3013B10623B6
S315080010F0ADF80E30002501A800F052F9A8462F4693
S31508001100AA46A946BDF80E3013B9B8F1000F20D08B
S31508001110394601A800F05CF901A800F055F901A8C4
S3150800112000F03EF9B7F5007F09D1002101A800F0CB
S315080011304FF901A800F048F901A800F031F901A813
S3150800114000F03EF9A8E72822214607A805F0F0F89E
S31508001150B5E7122D00F2BE80DFE805F00A222A3232
S315080011603A424A545C646C767E86909AA1ABB20089
S31508001170326811A87149A846FFF72EFF01250446D3
S3150800118007EB040B381D6E4BA144BBF5007F1844D2
S3150800119080F2A480224611A95F460AF030FAB1E728
S315080011A0726811A867490225FFF716FF0446E7E7A4
S315080011B0B26811A864490325FFF70EFF0446DFE766
S315080011C0F26811A861490425FFF706FF0446D7E728
S315080011D0726911A85E490525FFF7FEFE0446CFE7AA
S315080011E0B26911A85B490625FFF70EFF0446C7E753
S315080011F0594B11A896F8312007255849FFF712FFD1
S315080012000446BDE7564A11A856490825FFF71AFFAE
S315080012100446B5E7544A11A854490925FFF712FFB1
S315080012200446ADE7524A11A852490A25FFF70AFFB4
S315080012300446A5E7504B11A896F82F200B254F49D1
S31508001240FFF7F0FE04469BE7F28B11A84C490C25E4
S31508001250FFF7DAFE044693E7328C11A849490D25B3
S31508001260FFF7D2FE04468BE7474B11A896F83220C3
S315080012700E254649FFF7D6FE044681E7444B11A8DA
S3150800128096F833200F254349FFF7CCFE044677E747
S31508001290012111A808F070F91025044670E700210D
S315080012A011A808F069F9041E04BF4FF000081125BB
S315080012B066E7012111A800F09FFF122504465FE7A3
S315080012C0002111A800F098FF041E04BF4FF0000883
S315080012D0132555E700244FF0010851E7C7F50077B5
S315080012E011A90AF1010A3A46A4EB070B0AF087F995
S315080012F04FF4007101A800F06BF801A800F064F83B
S31508001300BDF80C3001A853451CBF0623ADF80E30B6
S3150800131000F046F811AB5A461F48D9193CE700BFFA
S315080013208C19002404A4029090290024B0A30290EA
S31508001330BDA302908305039038A4029050A402909E
S31508001340F42900245BA4029066A4029071A402907A
S315080013507DA4029086A40290C80600248EA402905A
S31508001360C429002496A40290D42900249FA402909C
S31508001370E4290024A7A40290A4060024AEA402909F
S31508001380B7A40290BFA402905C060024C8A40290E9
S3150800139020060024CFA40290F829002400000000AB
S315080013A05FF800F0D99802905FF800F00196029075
S315080013B05FF800F0596C02905FF800F0A99502906A
S315080013C05FF800F0BD9802905FF800F091960290E1
S30D080013D05FF800F0099802908D
S315080013D8084BF02283F8232000229A600649074B17
S315080013E8D9634FF0E023064959619A6107221A61C1
S315080013F8704700BF00ED00E0290600000000000065
S30908001408FFC3090007
S3150800140C10B40D4B1B24DC604C1E1C610B4C5C6130
S3150800141C9861BFF34F8F0AE0074B9B6813F0060FD2
S3150800142CFAD0054B93F8203002F8013B0139002914
S3150800143CF2D15DF8044B70470050005203250005A5
S3150800144C10B5002407E022464FF480712046FFF7BA
S3130800145CD7FF04F58074B4F5803FF4D310BDB5
S3150800146C07E0064BDB6913F0400FFAD0034B9A6280
S3150800147C01300278002AF4D1704700BF00100140F1
S3150800148C00B583B000230193030903F130028DF8EC
S3150800149C0420392A02D957338DF8043000F00F008E
S315080014AC00F130038DF80530392B02D957308DF8F9
S315080014BC050020238DF8063001A8FFF7D1FF03B0ED
S309080014CC5DF804FBBA
S315080014D010B483B00468019401FA03FC019921EA67
S315080014E00C0101919A40019B1A430192019B0360EA
S30D080014F003B05DF8044B7047D8
S315080014F808B50823012211460848FFF7E5FF084BF7
S31508001508CA225A6253225A621C23012211460548E6
S31508001518FFF7DAFFBFF34F8F08BD00BF0048025830
S30D0800152800400058E044025897
S3150800153008B51223022203211148FFF7C9FF042325
S3150800154007220F210F48FFF7C3FF03231A46072177
S315080015500D48FFF7BDFF0423012211460B48FFF78C
S31508001560B7FF0423002201210948FFF7B1FF094B01
S315080015700022DA624FF40B72DA6009221A6008BD9B
S31508001580000002582400025854440258F0440258F5
S30D080015909844025800100140BE
S3150800159808B514232A223F211848FFF795FF082380
S315080015A840F2666240F6FF711548FFF78DFF14236F
S315080015B83F2211461348FFF787FF1C230022032101
S315080015C81148FFF781FF0C23042207210F48FFF76C
S315080015D87BFF0F23012211460D48FFF775FF0D4BB8
S315080015E80D4A9A6001225A604FF480521A600B4AD3
S315080015F8DA6040F6F8729A6108BD00BF000802581A
S3150800160824080258080802584C44025850440258FC
S31508001618E8440258003C00400700072000004084C0
S3150800162820B14FF48032024B9A6170470122FAE7DB
S30908001638000C02583A
S3150800163C82B00021019140F6633303FB00F0084B9E
S3150800164C83FB0023C017C0EBA312019102E0019B98
S3150800165C01330193019B9342F9DB02B0704700BF3B
S3090800166CD34D6210DA
S3150800167010B5054C00231A4601212046FFF728FF1E
S3110800168040F6F873A36110BD003C004062
S3150800168CF8B505460C4616460120FFF7C7FF174F57
S3150800169C7C601123002203211548FFF713FF002352
S315080016AC012211463846FFF70DFF09230122114680
S315080016BC3846FFF707FF0AE00C4B5B6913F0020F7D
S315080016CCFAD015F8012B094B83F82020013C002C85
S315080016DCF2D1064B5B6913F0080FFAD016B1FFF777
S315080016ECC1FFF8BD0020FFF799FFF8E7003C004062
S309080016FC0C3C004054
S31508001700F8B505460C461646144F79601123022291
S3150800171003211348FFF7DCFE002301221146384651
S31508001720FFF7D6FE0923012211463846FFF7D0FEF9
S315080017300AE00A4B5B6913F0010FFAD0074B93F8DE
S31508001740303005F8013B013C002CF2D116B1FFF709
S315080017508FFFF8BD0020FFF767FFF8E7003C004061
S309080017600C3C0040EF
S3150800176410B582B000240194ADF8004066238DF8C4
S3150800177404302246012101A8FFF786FF99238DF834
S3150800178404302246012101A8FFF77EFF1920FFF73E
S3150800179453FF90238DF80430012204210DEB010038
S315080017A4FFF772FF224602216846FFF7A7FF16488D
S315080017B4FFF75AFE9DF80000FFF766FE9DF8010044
S315080017C4FFF762FE9DF80030C22B0AD0C22B03D164
S315080017D49DF80130182B0FD00C48FFF745FE02B0D0
S315080017E410BD9DF80120152AF0D10948FFF73CFEE3
S315080017F4084B01221A60F2E70748FFF735FE054B46
S3150800180402221A60EBE700BFF8CE00082CCF0008C6
S311080018140CCF0008F80D00241CCF0008BB
S3150800182070B40E46039D10491B24CC605C1E0C61E7
S3150800183040EA020C0D484CEA0000486112F4406F79
S3150800184000D08E61BFF34F8F0AE0074A926812F004
S31508001850060FFAD0044A92F8202005F8012B013B1E
S31508001860002BF2D170BC70470050005200010005F1
S3150800187008B500231A461F211648FFF729FE00233C
S315080018801F2211461448FFF723FE142301220321C1
S315080018901248FFF71DFE0023012203211048FFF717
S315080018A017FE1223022203210E48FFF711FE042316
S315080018B000220F210C48FFF70BFE122303221146C4
S315080018C00A48FFF705FE1D23002207210848FFF7EF
S315080018D0FFFD08BD88440258E0440258001002582B
S315080018E0000C025800080258240802580808025832
S309080018F01044025838
S315080018F438B5344C0E23012211462046FFF7E6FD7F
S3150800190400234FF020124FF030112F48FFF7DEFD69
S31508001914082309220F212D48FFF7D8FD0823092299
S315080019240F212B48FFF7D2FD00234FF03012114642
S315080019342848FFF7CBFD16232A223F212648FFF71E
S31508001944C5FD0C2340F6991240F6FF712348FFF7AC
S31508001954BDFD16233F2211462148FFF7B7FD042390
S31508001964022203211F48FFF7B1FD082309220F218C
S315080019741D48FFF7ABFD0423032211461B48FFF756
S31508001984A5FD1B4D1C23002203212846FFF79EFDB7
S315080019940423032211462846FFF798FD0E23012245
S315080019A411461448FFF792FD0E2300220121204612
S315080019B4FFF78CFD104B4FF4A8125A600F4A1A60B1
S315080019C438BD00BF7C44025800040258200402585B
S315080019D42404025808040258000C0258240C02581D
S315080019E4080C025800100258201002580810025811
S315080019F44C440258D44402580050005201000004D2
S31508001A0410B50C4B02221A600A4B1B6813F0020F1E
S31508001A14FAD1084B9B6813F0200FFAD1054C002223
S31508001A242260042303210448FFF750FD034B236077
S31508001A3410BD00BF005000524C440258010000017A
S31508001A4482B00023019308E0019B01330193019AB4
S31508001A5440F603239A42F7DD0138002802DD002305
S30D08001A640193F4E702B0704794
S31508001A6C10B50E4B1B24DC60104340F48070586193
S31508001A7C12F4406F00D09961BFF34F8F0024074BC7
S31508001A8C9B6813F0200F07D00120FFF7D1FD013416
S31508001A9C42F210739C42F2DD10BD00BF005000529A
S31508001AAC30B585B005460024ADF80C4022462146D3
S31508001ABC6620FFF7D5FF224621469920FFF7D0FF6F
S31508001ACC1920FFF7B5FD03AB009302234FF4105210
S31508001ADC21469020FFF79EFE0DB905B030BD15487E
S31508001AECFFF7BEFC9DF80C00FFF7CAFC9DF80D002D
S31508001AFCFFF7C6FC9DF80C30C22B09D0C22B03D1BC
S31508001B0C9DF80D30182B0ED00B48FFF7A9FCE4E70F
S31508001B1C9DF80D20152AF1D10848FFF7A1FC084BB2
S31508001B2C01221A60D9E70748FFF79AFC044B0222F0
S31508001B3C1A60D2E738CF00082CCF00080CCF000863
S30D08001B4CF40D00241CCF00086B
S31508001B5808B5FFF7CDFC174B1A6DA3F12963A3F552
S31508001B685923A3F647439A4200D008BD114B0022D1
S31508001B781A65FFF779FEFFF7D7FCFFF709FDFFF7A8
S31508001B88B5FE0D48FFF76EFCFFF7E8FD0120FFF7E5
S31508001B9889FF0A4B1B6813B1094B1B681BB909480F
S31508001BA8FFF760FCFEE7FFF74DFCFFF711FC00F0B6
S31508001BB80BF8FEE7004000584CCF0008F80D002443
S31508001BC8F40D002468CF00085FF800F0BD02000095
S31508001BD810B5144B1B24DC6040F00120586101390C
S31508001BE81961BFF34F8F08E00E4B9B6813F0040F7B
S31508001BF8FAD012F8011B0B4B19620A4B9B6813F0B3
S31508001C08020FF1D00024074B9B6813F0200F07D06A
S31508001C180120FFF70FFD013442F210739C42F2DDF2
S30D08001C2810BD00BF0050005278
S31508001C3008B5054B1B22DA60044A5A61BFF34F8F79
S31508001C400220FFF7FFFE08BD00500052EB2D180FCB
S31508001C5038B5104C104B114D04F10F001049C4E96A
S31508001C600035104BA3600023A381A37309F0BFFCC2
S31508001C700D4904F1190009F0BAFC0C4904F12900D0
S31508001C8009F0B5FC0A4904F1390009F0B0FC094B22
S31508001C901D6038BD94190024D002A8C000E1F505DE
S31508001CA055AB0290E80383065FAB029068AB0290DF
S30D08001CB077AB0290EC08002452
S31508001CB801380A280AD8DFE800F0060E161E221A86
S31508001CC826313B4512000A68234B1A60224B5A688C
S31508001CD8224B1A6070470A781F4B1A73F6E70A8868
S31508001CE81D4B5A81F2E70A881B4B1A81EEE70A68E8
S31508001CF8194B5A60EAE70A78174B9A73E6E70A789F
S31508001D08154B5A73E2E70A68134BC3F80F204A685B
S31508001D18C3F813200A89A3F81720D7E7104B01F14F
S31508001D28100251F8040B914243F8040BF9D1CDE798
S31508001D380C4B01F1100251F8040B914243F8040BBD
S31508001D48F9D1C3E7084B01F1280251F8040B91426F
S31508001D5843F8040BF9D1B9E794190024EC080024D0
S31108001D68AD190024BD190024CD19002473
S31508001D74F7B5284D022204460A262B46114603F0D7
S31508001D8472FEAB1C204604220221102703F06BFEC8
S31508001D946B1C20460522022103F065FE2B1F2046F4
S31508001DA40322022103F040FEAB1E20460B22022129
S31508001DB403F03AFEA5F1080320460622022103F0A1
S31508001DC414FEA5F10C0320460122022103F00DFEA0
S31508001DD4EB1C204607220221009603F0E1FD05F1DB
S31508001DE40D03204608220221009703F0D9FD05F1C8
S31508001DF41D03204609220221009703F0D1FD28235A
S31508001E04324602210093204605F12D0303F0C8FD4E
S30D08001E1403B0F0BDA01900247B
S31508001E207FB501284FF00003064688680C46CDE9C1
S31508001E300233DCBF0123029304F0B6FA029B03BB0C
S31508001E4002AAA1685B4804F05BF90128054601D09F
S31508001E500C2817D1032E17D1012D18BF0C25029B6C
S31508001E60554EA3B1554800F0EBF85DB3AA1E092AF2
S31508001E7032D840F22123D340DB0723D4062D6BD07A
S31508001E802AE00025042EEAD001230293E7E74C4B0B
S31508001E901B683BB9A5F10803022B03D8494800F093
S31508001EA0CFF819E00C2D17D8DFE805F00714291B21
S31508001EB037454E5D666D72777E003F4AE168424857
S31508001EC002F042FD414800F0BBF8414800F0B8F87E
S31508001ED04048E4E702F044FE72683F4B1A6004B0DB
S31508001EE070BD338964223D48039303AB009342F2E5
S31508001EF01073E16802F060FD039B3381ECE7738998
S31508001F0001223748039303AB00934FF6FF73E1684A
S31508001F1002F052FD039B7381D4E773683C22314873
S31508001F20039303AB00934FF44873E16802F070FD26
S31508001F30039B7360D0E701232B4A2C4800932C4B54
S31508001F40E16802F09DFDC7E701232A4A2A48009363
S31508001F502A4BE16802F094FD0023294A29481360B8
S31508001F60294A13609BE70123284A29480093294BED
S31508001F70E16802F085FDA5E71023274AE1682748AE
S31508001F8002F0FAFDA8E70A23254AE1682548F7E79B
S31508001F901023254AE1682548F2E72823244AE16800
S31508001FA0244802F0E9FD8DE7234800F049F800F0DF
S31508001FB0BFFF91E7C40000249419002489AB02905E
S31508001FC08C190024DFAB029008AC029029AD029070
S31508001FD06BAD02909BAD0290EC08002424AC0290F5
S31508001FE046AC029068AC0290A219002484AC029018
S31508001FF0A0000024A119002491AC029070000024CE
S31508002000342C0024C3AD0290302C0024A0190024DF
S31508002010A5AC02904C000024BD190024C6AC029061
S31508002020A3190024D5AC0290AD190024EDAC02909A
S31508002030CD190024FDAC02900FAD029000000000FF
S30D080020405FF800F0596C0290EC
S3150800204873B53E4C0C263E4D3E48D4E9001200F0C6
S31508002058A7F829683C4802F017F92B7B3B4A7343D3
S31508002068D018D0E901018DE803003948D358D4E9D6
S31508002078121200F095F83748D4E9031200F090F8E0
S31508002088354B186800F088F801462F4802F0FCF826
S315080020986B893248D4E9211200F082F82B89304836
S315080020A8D4E9061200F07CF86A682E492E48B2FB75
S315080020B8F1F301FB13220092D4E9091200F070F833
S315080020C8AB7B2A4A7343D018D0E901018DE803008F
S315080020D82748D358D4E90C1200F062F86B7B254AD6
S315080020E87343D018D0E901018DE803002248D35874
S315080020F8D4E90F1200F054F8204B1B68A3B105F178
S3150800210829031F48D4E91B1200F04AF805F11903F8
S315080021181C48D4E9181200F043F805F10F031A48C9
S31508002128D4E9151200F03CF8184B1948D4E91E12E0
S3150800213802B0BDE8704000F033B800BFC400002400
S3150800214894190024DAAD029009D402904C000024B0
S315080021580EAE029046AE02907C2000247AAE02901B
S31508002168B2AE029040420F00EAAE0290A0000024E8
S3150800217828AF02907000002460AF02908C190024E2
S3150800218898AF0290D0AF029008B00290CD190024FB
S3150800219840B00290000000005FF800F09B4E0190E6
S30D080021A85FF800F0596C029083
S315080021B0002307B5014601AA0848019303F0A0FFCA
S315080021C0019B3BB9064B53F8200000F011F803B009
S315080021D05DF804FB034800F007F8F8E7C40000249C
S315080021E03449039078B002905FF800F0596C029079
S30D080021F05FF800F0A56C0290EF
S315080021F810B52C4C69B1002323602B4A2B4B127B54
S315080022082B49FEF70BFF014623680846013323606E
S3150800221810BD23680A2BF7D801A252F823F000BF8D
S3150800222803220008552200085F22000869220008D0
S31508002238752200087D2200088522000891220008D8
S315080022489B220008A1220008A7220008164A194B53
S31508002258927B1949D5E7144A184B527B1849D0E797
S31508002268114B18491A89FEF7CBFECCE70E4B1649CF
S315080022785A89F8E70C4B15495A68F4E70A4B144982
S315080022881A68FEF7A5FEBEE7124A1349FEF7D6FEF8
S31508002298B9E7124A1249F9E7124A1349F6E7134AFF
S315080022A81349F3E790190024941900244C000024D4
S315080022B8C2B00290A0000024CEB00290700000249C
S315080022C8DFB00290F1B0029001B102900BB1029012
S315080022D816B10290A319002424B10290AD1900245E
S315080022E833B10290BD19002441B10290CD190024DA
S309080022F84EB1029043
S315080023002DE9F04F002391B09E4C4620099300F02A
S3150800231047FA2368FBB101229B4EDFF8DC829B4B10
S315080023201146F07904F0B8F998F80C30BBB1984D1D
S3150800233008F13904974F2946204600F00DFA98B15E
S3150800234001223B46F079114604F0A6F94FF47A705B
S3150800235000F026FAEFE70A2000F022FAD9E7D8F8C3
S3150800236000308B4A1BBA1360894C20208A4B22689E
S31508002370DFF888A21A600022114600F0E5F9874BBB
S3150800238001220221CAF800000090F07904F084F9CD
S31508002390B8F80A202146DAF8000000F0E9F9DAF878
S315080023A00030012202210093F0797D4B04F074F984
S315080023B07C4B01221A6009A9DAF8000000F0E4F95A
S315080023C078B9099B1A68B2F80890A9F118039BB264
S315080023D0C92B05930AD909980028ECD000F0D0F942
S315080023E0E9E70021102003F02BF8F4E76E4B1B6891
S315080023F0002BF0D157680AAC6C4A136007F1180233
S315080024003B460792186822465968083303C21446A1
S31508002410079A9342F6D10A9800F0BAF90A90044648
S315080024200B9800F0B5F90B900546BDF83E0000F094
S3150800243087F9BB685E4A5F491360FB68069053607C
S315080024403B8AADF83E00A1F11A00138100F030FA7C
S3150800245000F09EF9D7F81230DFF8A4B1D3B9DBF84B
S315080024600030012B05D0544B0122F079114604F0B7
S3150800247013F90123CBF80030069ADFF888B1052A4C
S3150800248000F24481DFE812F03500C400FB000101C8
S31508002490420134019842DBF8002026D198F80D3025
S315080024A0DBB9464B1B789806E6D5444B1B7813F0E8
S315080024B010030CBF022103218A42CBF80010DBD09F
S315080024C03F49404AF079002B18BF0A463E4B009216
S315080024D00122114604F0E0F8CEE7013B012BCBD8E8
S315080024E0364B1B789B06C7D4DFE7012AC1D0374B8A
S315080024F0BAE7DBF80030B9F1190F03F10103CBF89D
S31508002500003040F00381324B0022DFF8FC901A605D
S31508002510304BDFF8F8B01978C9F800400229CBF833
S3150800252000500AD12C492D4800F01EF92C490022EA
S31508002530284B0C602B491A700D60DBF800202A4BDB
S315080025402A4913441D4C8B4289BF294BCBF80030CE
S315080025509B18CBF8003082BFD9F800300133C9F890
S3150800256000303B7E237000F0FBF82378012203211C
S31508002570F0790193D9F8003000931E4B04F08CF8DB
S3150800258029E700BFE42000247D2900241FB7029014
S315080025907820002433B702907C20002460B702908C
S315080025A082B70290AC1C0024A01C0024A41C0024A2
S315080025B0941C0024BD190024A8B702908C1C002482
S315080025C013B7029019B70290CBB70290E8B70290FA
S315080025D0801C0024C01C0024B81C0024BC1C002439
S315080025E0B41C0024B01C0024002D3101FFC99A3BFD
S315080025F0006396C514B8029094190024A81C0024F8
S31508002600901C0024C41C0024881C0024841C00245C
S3150800261000F04EFEDBF80430B9F1B90F03F10103FF
S31508002620CBF8043072D13C4907F1190000F090F854
S315080026303A4B2246384819782B4681F02001C1F3D7
S31508002640401100F099F8364B197803297FF4C3AE88
S31508002650DFF8E890334FD9F800303348E21A3B6880
S315080026600094EB1A00FB02330122F079CDE90153FD
S315080026702E4B04F011F8C9F800403D60ABE6DBF8D4
S3150800268008300133CBF80830A5E600F011FEDBF878
S315080026900C30B9F1BC0F03F10103CBF80C3035D17E
S315080026A007F119001D4F1C4900F076F839782B46BA
S315080026B0224681F020011848C1F3401100F05CF869
S315080026C098F80D30002B3FF486AE194B164A2B446A
S315080026D039781848934281F0200184BF0134164B9B
S315080026E0C1F3401188BF5B19224600F045F872E62F
S315080026F0DBF81430B9F1E10F03F10103CBF814301C
S3150800270004D00599079800F093F964E6DBF81830C9
S315080027100133CBF818305EE6001A00248C1C00241E
S3150800272075290024F819002400CA9A3B50B802906B
S31508002730002D3101401B0024006396C5FC190024B6
S315080027405FF800F0954E01905FF800F0893201902D
S315080027505FF800F0651F00005FF800F0AD380190E3
S315080027605FF800F08D0900005FF800F0197D02900F
S315080027705FF800F0C53301905FF800F0ED0E000039
S315080027805FF800F04D4B01905FF800F009380190B2
S315080027905FF800F09B4E01905FF800F0952000006E
S30D080027A05FF800F051050190F5
S315080027A8034B187801280ABF022200201A707047BE
S309080027B8C01C00240F
S315080027C0194B13B55C7B012C0BD0022C22D034B9E3
S315080027D0164B186800F034F8154BC3E9000402B02C
S315080027E010BD01A9684600F02FF8019B114AA3F510
S315080027F0FA630F4C934289BF009B019303F1FF33A1
S315080028000093009800F01CF82060019800F018F872
S315080028106060E4E7054B064C186800F011F8064BB3
S3150800282020601868F2E700BF94190024881C002469
S315080028302820002400CA9A3B841C002400000000BB
S315080028405FF800F09B4E01905FF800F0197D02904A
S31508002850F8B50F4610490968E1B1104E0C25DFF8A6
S3150800286044C031684D430CEB05044CF80500227250
S31508002870002263720A4B62811868676000F014F8D8
S31508002880336801335A4203F0030302F0030258BFC8
S3150800289053423360F8BD00BFAC1C0024941D0024CD
S315080028A0986B0024442000245FF800F06F0701901D
S315080028B070B50546094E0C46FDF724FD2946024625
S315080028C0304600F011F82046FDF71CFD2146024669
S315080028D0304600F005F8C04370BD00BF7C77002481
S315080028E05FF800F0F5EA01905FF800F035EB01902B
S315080028F02DE9F041234E074600F108030D46D6F8A8
S315080029000F00D6F8131003C3B6F8172006F11901FD
S315080029101D481A80FFF7CCFF00F042F81B4BC7F89A
S315080029201200D3F80080B8F1000F28D100F040F863
S31508002930044620B90146BDE8F04102F081BDADB2BA
S31508002940294600F039F82A463946206800F02CF85E
S31508002950054640B14146022002F072FD2046BDE818
S31508002960F04100F019B80A4821467389094A0068F7
S3150800297000F026F80028F1D029460320ECE7BDE848
S31508002980F08100BF94190024941C0024A01C002484
S31508002990A81C0024782000245FF800F04D4B019015
S315080029A05FF800F09B4E01905FF800F06D680190AB
S315080029B05FF800F0354B01905FF800F0714B01901D
S30D080029C05FF800F0893401906C
S315080029C837B5FFF7F9FE002000F02AF80F4C104D2E
S315080029D82023E0820221237601226B7B0D48002BF7
S315080029E814BF1823192300930B4BC07903F050FE24
S315080029F86B7B2046002B14BF18211921FFF774FF9B
S31508002A08064A13680133136003B030BD2820002432
S31508002A18941900247D2900247AB80290802000247D
S30D08002A285FF800F0954E0190DD
S31508002A300E4B70B50E4C064618680D4600F01CF88D
S31508002A40002320600520636000F01AF82A46314604
S31508002A50E08204F1180008F0D2FD29462046FFF767
S31508002A6047FF044A53690133536170BD881C00242B
S31508002A709C1D0024802000245FF800F09B4E0190E6
S30D08002A805FF800F0954E019085
S31508002A88F0B50C461F4E85B01746054600F058F8AF
S31508002A983060204600F054F87060012000F048F8CD
S31508002AA8A022F08206F119001749377608F0A3FD27
S31508002AB8164B1B78022B14D1154E164F3368164938
S31508002AC8EA1A3B681548E31A009501FB0233012206
S31508002AD80321CDE90143124BC07903F0D9FD3560CE
S31508002AE83C60104B1B781B0702D4062000F024F81C
S31508002AF8B9210448FFF7F8FE0B4A536801335360B7
S31508002B0805B0F0BD6C1F0024F01C002475290024AC
S31508002B18E41C0024E01C002400CA9A3B7D290024F2
S31508002B289AB802908C1C002480200024000000001B
S31508002B385FF800F0954E01905FF800F05105019096
S30D08002B485FF800F09B4E0190B6
S31508002B502DE980489A4C8BB02368002B00F09280B0
S31508002B60DFF8D4B20122974B11469BF8070003F011
S31508002B7093FD954C4FF0FF32216803A800F0D0F979
S31508002B80DDE90323102AF5D10C229049DFF8AC823F
S31508002B9053438F4DCA1851F803A08E495368577A84
S31508002BA00093137A8C4A0193D8F800300133C8F899
S31508002BB000302B689A188A4268D82A60874B884A58
S31508002BC0196839B1002119600121864B19604FF443
S31508002BD0FA7313601368002B04DD013B13600BB90D
S31508002BE0804A1360804C236801332360FFF7DCFDBD
S31508002BF008B1FFF7E9FE7D491422DFF84492096817
S31508002C00B9F808300129B3FBF2F322684AD893428F
S31508002C1003DA00232360FFF7D7FEBAF1000FA8D026
S31508002C20724B1B68023B012BA3D8714C21788A068C
S31508002C3003D4704B1B68002B9BD001F00203019A4A
S31508002C401A4396D011F0100650466B4940F0FA80A8
S31508002C5000F04AF9B922314668480296069607F006
S31508002C6043FE99F80D30012B00F09680022B00F0F8
S31508002C70A380002B7FF47DAF3A46D8F80010604B4E
S31508002C80186896E00A2000F04FF965E703F1454316
S31508002C905B4A03F5160303F5C6432B601368013335
S31508002CA013608BE7934248DA0021102206A82160B8
S31508002CB007F01AFEFFF784FD022000F019F9514CBF
S31508002CC099F80D30E082002B64D0012B48D14E4B89
S31508002CD01B68002B5ED04D4E04F118004C4996F83F
S31508002CE02130721C07F032FD96F8223006F11102E7
S31508002CF0484904F1210007F029FDB28C464906A887
S31508002D0007F024FD0698BDF81C209DF81E30C4F86F
S31508002D102B00A4F82F2084F831303224344B1B784A
S31508002D20190702D4062000F0FFF821463548FFF7B8
S31508002D30DFFD3A4A936801339360394C23680133BF
S31508002D40FA2B23607FF769AF0026284B01229BF8F0
S31508002D5007001E601146334B03F09EFC26605CE7B5
S31508002D60314B183403F110061868083353F8041C5D
S31508002D702246B34203C21446F6D11A889B782280AB
S31508002D802A4AA37011682A4B19609188927999800A
S31508002D909A71C2E71824C1E706AA02A9009800F0AA
S31508002DA0AFF8244A06A902A800F0A6F83A460699FA
S31508002DB00298FFF769FEDCE63A4629685FE700BF36
S31508002DC0AC1C0024C4B80290986B0024442000244C
S31508002DD0841C0024FFC99A3B002D3101981D00244C
S31508002DE0EC1C0024A01C0024E81C0024901C0024D1
S31508002DF08C1C0024302C0024F01C00246C1F00249A
S31508002E00881C0024381F0024342C00243621002472
S31508002E10D9B80290E1B80290E9B80290802000245F
S31508002E20A41C0024F1B80290684903907B490390DA
S31508002E30631F002400D3CEFE7D290024801C0024B5
S31508002E409419002400F068F800283FF492AE214E49
S31508002E500021BC2230460291069107F045FD99F8FB
S31508002E600D30012B25D0022B2DD04BB91A4B1868E3
S31508002E7000F04EF83060D8F8000000F049F87060AD
S31508002E80032000F035F8A322F08214491448377657
S31508002E9008F0B5FB23781B0702D4062000F044F897
S31508002EA0BC210C48FFF724FD0E4AD3680133D360D2
S31508002EB05FE606A902A800F027F8029800F028F8AD
S31508002EC030600698D9E7044B186800F021F830609E
S31508002ED02868D2E77C1E0024881C0024F01C0024E5
S31508002EE0951E0024802000245FF800F0091F0000CA
S31508002EF05FF800F0954E01905FF800F02D7D029086
S31508002F005FF800F0C57C02905FF800F0197D02902A
S31508002F105FF800F09B4E01905FF800F0851F0000F7
S31508002F205FF800F0C10701905FF800F051050190C5
S31108002F30014B01221A607047981D00240E
S31508002F400A4608B5072809D8DFE800F03A043D2AFA
S31508002F502D0831374FF400511D482AE0052835D190
S31508002F60032933D8DFE801F0020A181A00224FF4C1
S31508002F708051174800F034F8002206E001224FF489
S31508002F808051134800F02CF801224FF400611048D4
S31508002F90BDE8084000F024B80022F0E70122E6E781
S31508002FA04FF48061D8E74FF480410A4801E0402198
S31508002FB00948002AECD00122EAE74FF40041F4E779
S31508002FC04FF40041C8E74FF48041C5E708BD00BF8C
S31508002FD000100258000C02580008025800000000B1
S30D08002FE05FF800F0890F02906A
S31508002FE808B500210420FFF7A7FF00210520FFF7F1
S31508002FF8A3FF00210720FFF79FFF00210620FFF700
S315080030089BFF01210320FFF797FF642000F044F88F
S3150800301800210320FFF790FF01210420FFF78CFF0A
S31508003028642000F039F800210420FFF785FF012104
S315080030380520FFF781FF642000F02EF802210520FD
S31508003048FFF77AFF642000F027F803210520FFF729
S3150800305873FF642000F020F800210520FFF76CFFB5
S3150800306801210620FFF768FF642000F015F8002103
S315080030780620FFF761FF01210720FFF75DFF64209F
S3150800308800F00AF807200021FFF756FF6420BDE87C
S31508003098084000F001B800005FF800F051050190FB
S315080030A8B0FA80F210210248520900F005B800BFAC
S315080030B800100258000000005FF800F0890F02901F
S315080030C8021E4FF04001024818BF012200F004B85A
S315080030D8000C0258000000005FF800F0890F029003
S315080030E82021024808B500F003F808BD000C02586C
S30D080030F85FF800F07D0F02905D
S315080031008021024808B500F003F808BD00080258F7
S30D080031105FF800F07D0F029044
S315080031188021024808B500F003F808BD000C0258DB
S30D080031285FF800F07D0F02902C
S315080031304FF48071024808B500F006F808BD00BFD4
S3150800314000080258000000005FF800F07D0F0290AA
S315080031502021044808B500F007F8B0FA80F04009C5
S3150800316008BD00BF000402585FF800F07D0F02900A
S3150800317030B58FB00D4604463422002101A807F069
S31508003180B3FB32232A2101A85C43B4FBF5F49C4225
S31508003190A8BF1C46224607F0A7FB04F1380301A97D
S315080031A004480DEB03040A2304F8343C00F004F841
S315080031B00FB030BDADBA02905FF800F0596C0290BE
S315080031C0002302282DE9F3410C46019310D14868E3
S315080031D003F0EAF801AA6168294802F091FF019D07
S315080031E04DB1284800F060F8002002B0BDE8F08133
S315080031F001230193F5E701380328F5D8DFE800F045
S315080032000206090F204B01221A60EDE71E4B002229
S31508003210FAE7322200211D4807F066FBE4E71B4E59
S3150800322000233246374632F8021B01338D42B8BFB7
S315080032300D46192BF7D11648002400F035F8DFF8AB
S315080032406080144800F030F8134800F02DF83388F1
S31508003250E21C21464046043400F026F8294636F892
S31508003260020BFFF785FF602CF1D121463A8E0B48F9
S3150800327000F01AF82946388EFFF77AFFB4E700BF40
S315080032809C010024B0BA0290A0210024A4210024A5
S31508003290CEBA0290EDBA02905BBB02900FBB0290C9
S315080032A002BB0290000000005FF800F0596C029023
S315080032B00F4B10491B6870B50F4C586A2368A3B1A9
S315080032C00B684CF24F360D4AC31A0D4D934296BF02
S315080032D00C4A1823B3FBF2F335F81320B24295BF14
S315080032E00132002325F813202360086070BD00BF53
S315080032F02873002464210024A0210024FF083D002F
S30D08003300A4210024007102005B
S31508003308002302282DE9F3410C46019310D1486899
S3150800331803F046F801AA61682A4802F0EDFE019D05
S315080033284DB1294800F060F8002002B0BDE8F081E8
S3150800333801230193F5E701380328F5D8DFE800F0FB
S315080033480206090F214B01221A60EDE71F4B0022DE
S31508003358FAE7322200211E4807F0C2FAE4E71C4EB3
S3150800336800233246374632F8021B01338D42B8BF6E
S315080033780D46192BF7D11748002400F035F8DFF861
S315080033886480154800F030F8144800F02DF83388A2
S3150800339804F1270221464046283400F025F8294634
S315080033A836F8020BFFF7E0FEB4F5707FEFD1214639
S315080033B83A8E0B4800F018F82946388EFFF7D4FEDF
S315080033C8B2E700BF9C010024B0BA02906821002425
S315080033D86C2100241CBB029042BB029059BB029088
S315080033E8AABB02909DBB02905FF800F0596C029048
S315080033F8002313B5044601A96846CDE9003300F051
S3150800340833F813490B680BB3009B124803F0030201
S31508003418019B00FB0233104A934234BF0020012067
S3150800342802FB10330D4A181B0D4B4CF24F349842C9
S3150800343896BF0C4B1820B0FBF3F032F81030A342B5
S3150800344895BF0133002322F810300B6002B010BD77
S315080034586821002400CA9A3B00286BEE6C210024D8
S31508003468FFC99A3B005A62025FF800F0197D02907C
S315080034781FB50B4B01240B4A1C60106058B100F0AD
S3150800348817F8094B4FF0FF3221461860684600F0D6
S3150800349813F804B010BD1A68002AFCD1F9E700BF72
S315080034A8DC210024E0210024D821002400000000A3
S315080034B85FF800F04D0501905FF800F0B30501903C
S315080034C82DE9F04387B005460E4617460F9C9846E1
S315080034D8BDF8389054B1104B4FF0FF31186800F01A
S315080034E82BF80022012102A800F022F83B463246B2
S315080034F829460A48CDE9008900F016F82046FFF75C
S31508003508B7FF34B1044B186807B0BDE8F04300F0BC
S3150800351807B807B0BDE8F083846B00249C760024BE
S315080035285FF800F0550601905FF800F0D112029096
S315080035385FF800F0B30501905FF800F009060190FE
S315080035482DE9F04387B005460E4617460F9C984660
S31508003558BDF8389054B1104B4FF0FF31186800F099
S315080035681FF80022012102A800F01EF83B46324641
S3150800357829460A48CDE9008900F01AF82046FFF7D7
S3150800358877FF34B1044B186807B0BDE8F04300F07C
S3150800359813B807B0BDE8F083846B00249C76002432
S315080035A85FF800F0090601905FF800F0B30501908E
S315080035B85FF800F0ED1302905FF800F055060190E9
S315080035C8F0B5044685B00E4617461D4653B10E4B50
S315080035D84FF0FF31186800F01BF8002201216846F1
S315080035E800F01AF821463B463246084800F01CF80F
S315080035F8B0FA80F464091DB1034B186800F010F896
S31508003608204605B0F0BD00BF846B00249C760024D4
S315080036185FF800F0090601905FF800F0B30501901D
S315080036285FF800F0550601905FF800F0091502905A
S31508003638054B00221A60054B1B6823B1044B012170
S31508003648186800F009B87047DC210024E021002436
S31508003658D8210024000000005FF800F061050190F9
S30908003668FFF7E6BFB5
S3110800366C4FF480324FF0104107F0C3BF46
S30B080036780020FFF7F7BF72
S31508003680034BD3F829200260B3F82D3083807047A6
S30908003690902900244B
S3150800369808B50120FFF704FD0A2000F009F8002004
S315080036A8FFF7FEFC0A20BDE8084000F001B8000054
S30D080036B85FF800F09DDA0190AD
S307080036C0704743
S315080036C8002373B5036006460B600D46136014465F
S315080036D801931E2201AB0121134800F029F880B98D
S315080036E8019BC3F3002203F00703013B3260052B55
S315080036F816D8DFE803F0030D1515081200232B600A
S31508003708236002B070BD4FF400532B600023F7E71F
S3150800371800232B604FF48043F2E74FF40053F8E791
S3150800372800233360EDE700BF1C7C0024000000007E
S30D080037385FF800F0CB070290D0
S31508003740F0B59FB004460D466422002105A807F08F
S31508003750CBF803AA04A902A8FFF7B6FF94F83130FC
S31508003760029EC3F3800355EA03020ED056B91C48DD
S3150800377000F052F8204600F047F8204600F054F8CA
S315080037801FB0F0BD0DB9002BFAD1012EF8D105A94D
S31508003790134800F03DF8049D039F05A910480B95B2
S315080037A00A9700F03DF80E4800F046F8204600F06B
S315080037B03FF8204600F024F80A4A0B4B0B49002F25
S315080037C008BF13460A4A0B48002D08BF0A46314669
S315080037D0CDE90032084B3246007902F05DFFCFE7AB
S315080037E01C7C0024AABD0290AEBD0290B3BD029017
S315080037F0B7BD02907D290024BBBD029000000000E1
S315080038005FF800F0396101905FF800F0E56001901B
S315080038105FF800F0250802905FF800F05F04029058
S315080038205FF800F0B10902905FF800F0816101903D
S315080038305FF800F09D6001905FF800F0DB030290EE
S315080038400023012873B505460C46009305D12B487D
S3150800385000F07AF8002002B070BD486802F0A4FDB6
S315080038606A466168264802F04BFC009E03460EB184
S315080038702448EDE7022815D0032823D00128E9D1EA
S31508003880032DA068019301D01F48E1E701AB32463A
S31508003890042102F0E9FC019B002BF5D01B4B188094
S315080038A01B48D5E71B4B1C4C19881C4800F04CF8E4
S315080038B0256800F041F822682946821A184800F05F
S315080038C043F8C7E7174800F03FF8174D174B012292
S315080038D01A6000F031F82E60044664262B6823B976
S315080038E00A2000F02DF8013EF8D1296821B1091BFC
S315080038F00F4800F029F8ADE70E48A9E73BBE02904D
S31508003900F00100245BBE02907CBE02900E220024C9
S31508003910B2BE02900C22002404220024DBBE0290D0
S315080039200BBF029024BF0290082200240022002424
S3150800393061BF029039BF02905FF800F091DA0190FA
S315080039405FF800F0510501905FF800F0596C02909D
S315080039500123024A0249034800F006B80C22002453
S315080039600E220024EC7400245FF800F0494C029003
S3150800397037B50446124DFFF7EBFBB8B900F034F83B
S31508003980104B1860104B1B880193104B00930122B3
S315080039900F4B0321687B02F0DBFE01230A4A20460F
S315080039A00C4903B0BDE8304000F01AB800F01CF826
S315080039B0094B1860074B1B880193084BE6E700BFC5
S315080039C07D290024042200240C22002480BF0290B2
S315080039D0010000020E22002408220024AABF029039
S315080039E05FF800F0494C02905FF800F091DA019018
S315080039F00A4B1A68012A04D0022A09D03AB10022D1
S31508003A0004E0074A4FF08071916102221A607047FC
S31508003A10034A4FF480719161F1E700BF0022002448
S30908003A20000002583A
S31508003A24402307B58DF80730FDF720FFFDF760FF43
S31508003A340020FEF739F8002206201146FEF714F88E
S31508003A4401210DF107020846FEF7C4F83220FDF7F6
S31108003A54F7FFFEF7EBF803B05DF804FB83
S31508003A6008B572B6FDF7CEFFFEF7E2F862B608BDF6
S31508003A70024B00221B681A65704700BF7475002444
S31508003A800028034A034B126808BF002313657047D2
S30D08003A9074750024B9A3624D08
S31508003A98F0B5002389B00D4607464868009302F03A
S31508003AA87FFC6A466968674802F026FB009C06465A
S31508003AB82CB1654800F0E4F8002009B0F0BD0228EA
S31508003AC861D0032800F098800128F5D114222146F0
S31508003AD803A8019406F004FF082F029401D05B4856
S31508003AE8E8E702AB63222146A86802F029FB02AB85
S31508003AF80C2231468DF80700E86802F021FB02AB74
S31508003B081F2231468DF80500286902F019FB07239C
S31508003B18172221468DF806008DF8043002AB68692D
S31508003B2802F00EFB02AB3B2221468DF80C00A86971
S31508003B3802F006FB3B228DF80D0002AB2146E86928
S31508003B4802F0FEFA029A8DF80E0004948DF80F40DA
S31508003B58CDE906440AB13E48ACE701A93D4800F05C
S31508003B689BF810B1029B01330293002203A9394836
S31508003B7800F08EF810B1029B01330293029B002BCA
S31508003B88E9D1354896E71422214603A8029406F097
S31508003B98A7FE324B1B680BB931488BE7314B02A994
S31508003BA82C4893F826208DF80B2093F827208DF8B3
S31508003BB8092093F828208DF80A2007228DF808206E
S31508003BC893F829208DF80C2093F82A2093F82B309F
S31508003BD88DF80D2022468DF80E3000F05DF8054662
S31508003BE8224603A91B4800F053F80543EDB20DB168
S31508003BF81D485FE71D485DE72146142203A802947D
S31508003C0806F06EFE224603A9124800F035F8224649
S31508003C1802A9104800F038F89DF80B309DF80A20DC
S31508003C289DF8091003F5FA63114800F029F89DF87C
S31508003C380E309DF80D209DF80C100E4800F020F85F
S31508003C483AE700BF5C020024B7C00290DDC00290C4
S31508003C58FBC00290747500242AC10290342C0024F3
S31508003C6839C10290362100245CC102907AC10290BB
S31508003C7895C10290A5C102905FF800F0F74302903B
S31508003C885FF800F0596C02905FF800F03D44029026
S31508003C985FF800F08B4202905FF800F04F430290FD
S31508003CA838B54FF48033064D14468AB2AB610146DF
S31508003CB80A23044800F008F80CB90123AB6138BD9B
S31508003CC8000C0258647400245FF800F0B5470290A7
S31508003CD82DE9F347002406464FF00109DFF868A0E6
S31508003CE8019425468DF8034000F03AF8DFF85C8021
S31508003CF800F1320700F034F8B84200D845B101346B
S31508003D08642000F029F8042C1CDDCEB9012500240E
S31508003D180122052301A811468DF80430FFF7C0FFD4
S31508003D280A2301220DF10301504600F011F8C8F8DC
S31508003D3818909DF80330DB07DCD402B0BDE8F0879D
S31508003D48B047E3E70125E3E764740024000C02584A
S31508003D585FF800F0E94902905FF800F05105019014
S30D08003D685FF800F091DA019002
S31508003D7030B5002485B066230121224603A80394A2
S31508003D80ADF808408DF80C30FFF78EFF99232246D0
S31508003D90012103A88DF80C30FFF786FF01200124C6
S31508003DA000F056F890230122042103A88DF80C3060
S31508003DB0FFF77AFF0A23022202A91B4800F044F8FB
S31508003DC01A4B1B4D22469C6103219DF8093001932D
S31508003DD09DF808300093174B287B02F05DFC9DF890
S31508003DE00830C22B18D19DF80930287B152B08D12D
S31508003DF0114B2246022102F04FFC104B1C6005B005
S31508003E0030BD182B08D10E4B2246022102F044FC85
S31508003E100A4B02221A60F2E701220A4B287B114656
S31508003E2002F03AFCEBE700BF64740024000C025869
S31508003E307D29002478C202909CC20290282700247B
S31508003E40B6C20290D1C202905FF800F0E94902902A
S30D08003E505FF800F09DDA01900D
S31508003E582DE9FF41DFF8B080002600910546274B7B
S31508003E680C4617460321012298F80C0002968DF88D
S31508003E780C6002F00DFC06233246012102A88DF8D3
S31508003E880830FFF70DFF8DBB1D48C4F30743C4F37D
S31508003E980721E2B20068012819D1202264BA042150
S31508003EA88DF809308DF808202A46ADF80A4002A888
S31508003EB8FFF7F6FE3846FFF70BFF124B01220321E0
S31508003EC898F80C0002F0E4FB04B0BDE8F081212064
S31508003ED8E40D8DF80B1005218DF80C202A468DF86F
S31508003EE808008DF809408DF80A30E0E7012DE1D180
S31508003EF86023324629468DF80830D8E7F6C202907C
S31108003F08282700240DC302907D29002400
S31508003F187FB5002306462248154602930C468DF8B7
S31508003F280C30204BCDE9001201220321007B02F058
S31508003F38AFFBB5F5803F00D3FEE71B4AC4F307433A
S31508003F48C4F30720E1B21268012A1AD1032164BA18
S31508003F588DF809308DF808100421ADF80A4002A832
S31508003F68124CFFF79DFE3146AAB2104800F024F815
S31508003F78204600F025F80128FAD10D4B986104B0BF
S31508003F8870BD1322240E8DF80C1005218DF8082013
S31508003F9801228DF809408DF80A308DF80B00DEE706
S31508003FA87D29002421C3029028270024647400244C
S31508003FB8000C0258000000005FF800F0C14E02909D
S30D08003FC85FF800F0F5520290C3
S31508003FD02DE9F04FDFF8E49085B04FF00008DFF8E0
S31508003FE0E0A0DFF8E0B007460C461646304BCDE9B0
S31508003FF000120122032199F80C0002F04DFBB0458E
S3150800400009D32C4B0122032199F80C0005B0BDE811
S31508004010F04F02F041BB24F0FF05A6EB080300228F
S3150800402001212D1B02A8029205F580758DF80C203A
S315080040309D4228BF1D4606238DF80830FFF734FE3B
S315080040401D4AC4F30743C4F30720E1B21268012AE4
S315080040501ED102218DF8093063BA8DF808100421A3
S31508004060ADF80A3002A8FFF71FFE3946AAB2504635
S3150800407000F02AF8504600F02BF80128FAD1CBF8C0
S31508004080180000202C44A8442F44FFF725FEB6E765
S3150800409012228DF80C108DF80A3005218DF80820AB
S315080040A0220E8DF80B008DF809200122DAE700BFF1
S315080040B03FC302905DC30290282700247D2900246F
S315080040C064740024000C02585FF800F05D4D0290FD
S30D080040D05FF800F0F5520290BA
S315080040D8F0B5074685B0124800260C461546114B1A
S315080040E80396CDE9001201220321007B02F0D0FADB
S315080040F8B123324603A801218DF80C30FFF7D0FD0D
S315080041082A4621463846FFF703FFC12332460121CE
S3150800411803A88DF80C30FFF7C3FD05B0F0BD00BF46
S30D080041287D29002471C30290F1
S31508004130F7B50024B12305460E46174601A82246C0
S31508004140012101948DF80430FFF7AEFD3A46314659
S315080041502846FFF73DFFC1232246012101A88DF815
S30F080041600430FFF7A1FD03B0F0BD1F
S315080041702DE9FF41324D0026324B01220321287BCF
S315080041808DF80E604FF02B088DF80F6002F084FA58
S31508004190012201240DF10E002B4F11468DF80E80D9
S315080041A0FFF782FD0DF10F010A230122274800F0CF
S315080041B057F8BC619DF80F30224603210093244B23
S315080041C0287B02F069FA0623324621460DF10E00D5
S315080041D08DF80E30FFF768FD2F23324621460DF184
S315080041E00E008DF80E30FFF75FFD052000F03CF855
S315080041F0224621460DF10E008DF80E80FFF754FD7C
S3150800420022460DF10F010A23104800F029F8BC6177
S315080042109DF80F302246032100930E4B287B02F0AF
S315080042203BFA9DF80F302246032113F0020F287B34
S3150800423014BF094B094B02F02FFA04B0BDE8F08110
S315080042407D29002492C30290000C0258647400244D
S31508004250A9C30290CDC30290F0C3029003C4029092
S315080042605FF800F0E94902905FF800F05105019007
S3150800427001EB410152F821200146014800F004B83B
S3150800428054070390000000005FF800F0596C029094
S31508004290CBB207B50193C1F307230A0E0093C1F306
S315080042A007430146024800F007F803B05DF804FB2F
S315080042B015C70290000000005FF800F0596C0290E4
S315080042C02DE9F04F002389B00C464868079302F0A1
S315080042D06BF807AA6168A74801F012FF079B33B17C
S315080042E0A54800F029FB002009B0BDE8F08F1E287C
S315080042F0DFF80C9318BF054600F1010006BF1E2320
S31508004300012503460593059B9D42ECDAD9F8006022
S315080043104EB9A5F10903012B05D83546974800F093
S315080043200BFB0135EFE76B1E1C2BFAD8DFE813F001
S315080043301D00230027002B0063006F002F00670075
S3150800434077007B0081006C01B7015800A401AA011F
S31508004350AF01B301B901BF01C50114027E001802FD
S315080043602602540060005D007A02854B854819686C
S31508004370FFF78EFFD5E7824B83485968F8E7804BED
S3150800438082489968F4E77E4B8148D968F0E77C4E05
S31508004390804800F0D1FA31687F48FFF779FF7168E5
S315080043A07E48FFF775FFB1687D48FFF771FFF16832
S315080043B07C48FFF76DFF7C4A96F82F107B48FFF77D
S315080043C057FF96F82F30012B02D1794800F0B4FA3E
S315080043D0784800F0B1FAA4E7694B77485969C7E706
S315080043E0674B76499A6976480EE005F01DF898E716
S315080043F0FDF72AFE95E7624B72491A69F3E7604BA7
S315080044007148998B1A7F090A00F096FA89E75C4B7E
S31508004410654A93F82F106D48FFF72AFF81E76C4A23
S315080044206C496D48F0E76D4A6D49FAE76D4A6E4981
S31508004430F7E7DFF8D0A14FF00C086C4F9AF8003078
S315080044406B4E08FB03F36B483168FA5800F074FAB0
S315080044509AF80130F16808FB03F36648FA5800F049
S315080044606BFA9AF80230B16908FB03F36148FA5807
S3150800447000F062FA9AF80330716A08FB03F35D48A4
S31508004480FA5800F059FA9AF80430316B08FB03F32E
S315080044905848FA5800F050FA9AF80530F16B08FBBC
S315080044A003F35448FA5800F047FA9AF80630B16C04
S315080044B008FB03F34F48FA5800F03EFA9AF807301B
S315080044C0716D08FB03F34B48FA5800F035FA9AF871
S315080044D00830316E08FB03F34648FA5800F02CFA08
S315080044E09AF80930F16E08FB03F34248FA5800F0CF
S315080044F023FA9AF80A30B16F08FB03F33D48FA58D5
S3150800450000F01AFA9AF80B30D6F8841008FB03F371
S315080045103848FA5800F010FA9AF80C30D6F8901085
S3150800452008FB03F33348FA5800F006FA9AF80D30F8
S31508004530D6F89C1008FB03F32E48FA5800F0FCF94D
S315080045409AF80E30D6F8A81008FB03F32948FA584B
S3150800455000F0F2F99AF80F30D6F8B41008FB03F316
S315080045602448FA5800F0E8F9234800F0E5F923480A
S315080045702FE700BF9804002425C70290DFAB0290FE
S315080045809029002451C7029064C7029073C702900D
S3150800459086C7029092C70290D2C70290F0C70290CF
S315080045A00EC802902CC80290A40600244AC802909D
S315080045B069C802909CC80290D0C80290E6C80290CA
S315080045C0FEC8029005C902901BC902904DC8029008
S315080045D0C42900243FC9029054070390D429002413
S315080045E055C90290E42900246AC902909003002460
S315080045F0CC03002481C902908AC90290BCC90290E2
S315080046008C1900247D290024994800F095F99948C9
S3150800461000F092F9984800F08FF9984800F08CF964
S31508004620974800F089F9974800F086F9914800F014
S3150800463083F9954800F080F9944800F07DF994488C
S3150800464000F07AF9934800F077F9934800F074F986
S31508004650924800F071F9924800F06EF9914800F01E
S315080046606BF9844800F068F98F4800F065F98F48BF
S3150800467000F062F97F48ACE68D4B8E4A93F831100C
S315080046808D48C9E68D4B8E4A19788E48C4E6884B04
S315080046908D49DA8BA7E6864B8C491A8CA3E68C489B
S315080046A097E6834B8B4A93F832108B48B4E6804BD7
S315080046B08A4A93F833108A48AEE6DFF8F4A140F642
S315080046C06B2688484FF0640800F036F9864800F0F3
S315080046D033F94FF4A571BAF822B040F23452BAF859
S315080046E024704FF47A7301FB0BFB80484F434FEA63
S315080046F02B3B3F1302FB0BFB5743BBFBF3FBB7FB01
S31508004700F3F700F019F97A4800F016F906FB0BF3EF
S315080047107E437848B3FBF8F3A3F55053153BBBFB30
S31508004720F8F293FBF8F3009308FB12B3BAF82210D9
S3150800473000F002F97048B6FBF8F6A6F55056153E95
S31508004740B7FBF8F296FBF8F608FB12730096BAF870
S31508004750241000F0F1F8E4E5554B6849DA8C42E696
S31508004760674F0026DFF8C4813146013617F8012B5A
S31508004770404600F0E1F8082EF6D1D2E500F0E0F860
S315080047804FF47A720646DFF8A8A1DFF8A881B0FBD5
S31508004790F2F102FB11025B4800F0CEF80022174640
S315080047A0DAF80030A3EB070B0BF11F0BDBF1000364
S315080047B00BF01F0B03F01F0358BFC3F1000B0C23AC
S315080047C003FB0B835B682BB32AB94F4800F0B4F898
S315080047D04E4800F0B1F80C234FF47A7203FB0BFB3A
S315080047E058F80BC008EB0B0EA6EB0C00DEF808B069
S315080047F0B0FBF2F3BCFBF2F102FB130002FB11C2A1
S31508004800CDE902BBDEF8044000900194404800F070
S3150800481093F801220137202FC2D10AB93D48D8E5BD
S315080048203D48D6E54FF0000B3C4E0627DFF8F8A0CA
S31508004830D84616F8012B72B10BF1010B41463848E0
S3150800484000F07AF89BFBF7F307FB13B3052B02D1AD
S31508004850504600F071F808F10108B8F1200FE8D1C8
S31508004860BBF1000F01D12F48B3E52F48B1E500BFD2
S31508004870F4C9029073D0029008CA029017CA02902F
S3150800488026CA029048CA029068CA029076CA02905E
S3150800489086CA029096CA0290A4CA0290B3CA029027
S315080048A0C2CA0290D1CA0290E0CA0290F6CA029021
S315080048B090290024C80600240CCB02906C290024F9
S315080048C00C03002422CB029037CB029048CB0290EF
S315080048D063CB02905C0600247CCB02902006002461
S315080048E08CCB029099CB0290D5CB02900FCC02903C
S315080048F025CC02903BCC029053CC02906BCC029014
S315080049007529002497CC0290BDCC0290F8CC029071
S3150800491033CD02905BCD029067CD029000008038BF
S31508004920AFCD0290BECD029008D4029083CC0290FF
S31508004930E8270024EC2700245FF800F0596C029061
S30D080049405FF800F091DA01901E
S3150800494830B585B000230446084603A915460393DF
S3150800495800F026F820B90D4800F01EF805B030BD5D
S31508004968039800F021F82860C3B22146020E019385
S31508004978C0F307230093C0F30743054800F00CF873
S31508004988044B012283F83020E8E700BFDFCD029008
S31508004998F3CD0290902900245FF800F0596C029034
S315080049A85FF800F0EDCD01905FF800F09B4E01909E
S315080049B873B514461D46002306462A46084601933B
S315080049C8214601AB01F0BCFB019B024633B12A46DE
S315080049D82146084800F014F802B070BD069B314617
S315080049E81860054800F00CF8044B012283F83020BB
S315080049F8F2E700BF07CE02903BCE0290902900242A
S30D08004A085FF800F0596C0290FA
S31508004A10F0B51E4685B000231546124C074603938B
S31508004A200623084604FB06F2009303AB04FB05F1D4
S31508004A3001F0B6FB039B33B1324629460A4800F01B
S31508004A401BF805B0F0BD90FBF4F20A9B39461860D6
S31508004A5004FB1203054800F00FF8054B012283F802
S31508004A603020EEE740420F0007CE029046CE029075
S31508004A7090290024000000005FF800F0596C0290AD
S31508004A802DE9F7431D468846002407460846914601
S31508004A900A9E019401F088FC01AA4146284601F0C5
S31508004AA02FFB019B93B10C3D114E124800F02CF8D8
S31508004AB0033455F8241029B90F4800F025F803B037
S31508004AC0BDE8F083304600F01FF8F1E742B289F8F6
S31508004AD000003946094802EB420255F8222000F048
S31508004AE013F8002EEBD0064B012283F83020E6E7B8
S31508004AF07ECE029057CE029008D4029082CE0290C3
S31508004B0090290024000000005FF800F0596C02901C
S31508004B10002373B5044616460B4801AA01930D46B1
S31508004B2001F0EEFA019B23B1084800F015F802B02F
S31508004B3070BD2A4630702146054800F00DF8054B31
S31508004B40012283F83020F2E7EC0600248DCE02908D
S31508004B5082CE0290902900245FF800F0596C0290EA
S31508004B60014800F005B800BFCFCE02900000000053
S30D08004B705FF800F0596C029091
S31508004B78F8B5074615461E460C4619B10846FBF70A
S31508004B88BDFB20B90D48BDE8F84000F021B8B04291
S31508004B9801DB0B48F7E732460021284605F0A0FE58
S31508004BA82146284606F01FFD22463946054800F0E4
S31508004BB80FF8054B012283F83020F8BDF8CE02908D
S31508004BC80BCF029082CE02909029002400000000A4
S30D08004BD85FF800F0596C029029
S31508004BE02DE9F047002392B00C4605464868CDE902
S31508004BF0033301F0D9FB03AA6168964801F080FAED
S31508004C00039B1BB1944800F0D7FB52E0022D07DC4A
S31508004C101E2803D8914BC340DA0701D49048F2E71F
S31508004C20904B1B682BB9A0F10903012B01D88E48BC
S31508004C30E9E701381D283CD8DFE810F01E002B00F4
S31508004C402F0033005D00EB0039003900F400FB004B
S31508004C5005013900BF014300B801F401FD010C024A
S31508004C601B02220256021203000131034E033F00C3
S31508004C70580053005D0339007C4AA1687C48FFF759
S31508004C8063FE7C4800F098FB7B4800F095FB7B4868
S31508004C90B9E77B4AA1687B48F1E77B4AA1687B486C
S31508004CA0EDE77B4AA1687B48FFF74EFE01E0FFF778
S31508004CB057FF002012B0BDE8F087774AA168774809
S31508004CC0F2E76A4D4FF416627548AB69049304AB74
S31508004CD000934FF4E133A168FFF76EFE049BAB61C6
S31508004CE0CFE72146284604F0C7FAE2E721462846D8
S31508004CF0FDF796F8DDE70023032D05930893ADF835
S31508004D00243007D1A1686748FBF7F2FA10B9FFF714
S31508004D102FFACEE7554B1B69013301D0624872E77B
S31508004D20052D01D061486EE7002205ABA068114643
S31508004D3001F00AFA05ABFF2200210546E06801F0FA
S31508004D4003FA05AB074663220021206901F0FCF946
S31508004D50059B06460BB1564855E703463A4629468B
S31508004D60544800F029FB544800F026FB534800F04D
S31508004D7023FB534800F020FB524800F01DFB062198
S31508004D8008A800F00DFB042841D14F4908A8FBF7F5
S31508004D90AFFA0446002838D14C4800F00DFB06A9A6
S31508004DA02B0E4B48CDE906444A4C23702B0CE57074
S31508004DB063702B0AA772A370E67200F0F9FA05462B
S31508004DC007A9434800F0F4FA284310F0FF0104D07D
S31508004DD0414800F0F1FA414815E7069A2046130EB5
S31508004DE0E27123F0030343F002032371130C63718A
S31508004DF0130AA371079B1A0E1B0C22720C226372EC
S31508004E00FFF796F9FFF7B4F9E5E73548FBE63548C5
S31508004E10F9E60123344A35480093354BA168FFF774
S31508004E202FFE2EE71023334AA1683348FFF7A4FE66
S31508004E303FE71023314AA1683148F7E71023314A82
S31508004E40A1683148F2E70023042D089360D02F4863
S31508004E50D9E600BF980400241CCF0290C081616285
S31508004E6047CF02908C190024DFAB029090290024CA
S31508004E7051C7029029AD02906BAD02909BAD02908E
S31508004E809429002464C702909829002473C70290C5
S31508004E909C29002486C70290A42900246ACF029080
S31508004EA07FCF02908ECF0290CFCE029093CF029002
S31508004EB0E9CF0290FCCF02902ED002905AD00290F1
S31508004EC089D00290CCD0029026A70290F5D0029005
S31508004ED0987500240CDA003009D1029039D1029075
S31508004EE02AA702903DA70290BF29002465D1029007
S31508004EF0A4060024C42900243FC90290D42900240A
S31508004F0055C90290E42900246AC9029081D1029009
S31508004F1008AAA1685E4801F0F3F808AA0546E16800
S31508004F205C4801F0EDF8089A03460AB15A486AE661
S31508004F30681E0F283FF6BDAEDFE800F0080B0E111D
S31508004F4014171A1D202326292C2F3235534A13707D
S31508004F50AFE6524A5370ACE6504A9370A9E64F4AF8
S31508004F60D370A6E64D4A1371A3E64C4A5371A0E6E0
S31508004F704A4A93719DE6494AD3719AE6474A13729B
S31508004F8097E6464A537294E6444A937291E6434A30
S31508004F90D3728EE6414A13738BE6404A537388E60A
S31508004FA03E4A937385E63D4AD37382E601233C4A1B
S31508004FB03C4800933C4BA16831E70023032D089336
S31508004FC003D03A4800F0F8F95BE6A06801F0ECF97E
S31508004FD008AAA168364801F093F8089B002BF0D17F
S31508004FE0344C90B1012817D00C2294F8313030494E
S31508004FF0504353432C4A0958D3582F48A26900F006
S31508005000DBF9012384F830303BE64FF4E133A36142
S31508005010012384F83130E7E74FF4165384F831005A
S31508005020A361E1E70023254A25480093254BA1689B
S31508005030FFF726FD3DE61F4D01222348EB8B04931F
S3150800504004AB00934FF6FF73A168FFF7B5FC049B0A
S31508005050EB8316E6174D01221C482B8C049304ABF0
S3150800506000934FF47A73A168FFF7A6FC049B2B8480
S315080050701FE60123164A17480093174BA168D7E77E
S315080050800123164A16480093164BA168D0E700BFBD
S31508005090CC03002490030024CDD102907D2900245E
S315080050A0C12900240CCB0290C806002405D2029020
S315080050B0E8020024902900242FD202906C290024AB
S315080050C022CB02900C03002437CB029058D20290D0
S315080050D0C229002473D202905C060024C329002446
S315080050E08CCB0290200600242822002108A8884E8E
S315080050F005F0FAFB01238748336000F05DF986481E
S3150800510000F05AF9854800F057F9854800F054F937
S31508005110844800F051F9844800F04EF900F044F94B
S3150800512000F052F90028FBD04FF6FF744FF0000844
S315080051307E4F00F039F9254628222E2108A805F0C9
S31508005140D3FB7C237A4A8DF820308DF841303B69B1
S315080051508DF84280774893FBF2F301335322202BD4
S31508005160A8BF2023012BB8BF012348336B4403F89B
S31508005170282C00230122042A08BF052257F82210EA
S31508005180013291FBF0F1102A0B44F4D1002B4FF0B9
S315080051904E024FF00000B8BF03339B100133202B9B
S315080051A0A8BF2023012BB8BF012348336B4403F85B
S315080051B0282C00F005F9604B81461B5C03F00303BD
S315080051C0012B08BF00F120090020FBF7BDFD08A947
S315080051D002468246594800F0EFF8B9F1710F1ED120
S315080051E05446574800F0E8F8A9F17803D3F10009C6
S315080051F049EB03094FEA4909C82000F0CDF8B9F18F
S31508005200000F99D0B9F1010F07D1A54218D34D481F
S3150800521000F0D2F84C4800F0CFF84C4819E0B9F144
S31508005220610F04D14A48554600F0C6F8DCE74948FC
S3150800523000F0C2F8B9F1730FD6D14FF00109DBE7D8
S31508005240454B46485D849C8483F8309000F0B4F85A
S31508005250434800F0B1F8FBF7AFFC0023336028E5BC
S315080052600021022D08910AD13E4B19883A4C3E4836
S31508005270E18400F0A1F8012384F8303019E5032D04
S315080052800BD108AB4FF6FF72A06800F05DFF089BD4
S315080052900146002BEAD03548B5E43548B3E4002684
S315080052A0042D089604D00821324800F085F800E558
S315080052B008AB07223146A06800F046FF08AB054652
S315080052C0FF223146E06800F03FFF089B0BB12A48F1
S315080052D099E42A4B5855ECE4022D02D0284800F0F0
S315080052E06BF8284A20230021013B516002F10C0289
S315080052F0FAD1254887E4022D02D0214800F05CF84F
S3150800530020220021214805F0EFFA21487BE400BF5E
S31508005310202700247ED20290BDD202900ED302909E
S3150800532042D3029098D30290CDD3029094260024BB
S31508005330801A0600400D0300656C04900AD402909A
S3150800534011D4029044D402907BD40290A4D4029043
S315080053502DD4029008D4029090290024C6D4029035
S31508005360E9D402905C0900241ED5029040D502902B
S3150800537073D50290B1D50290EBD502907529002419
S3150800538020D60290EC27002441D6029000008038EF
S3150800539069D60290000000005FF800F05105019000
S315080053A05FF800F0896D02905FF800F0FD6A0290E0
S315080053B05FF800F0B94002905FF800F0596C02906F
S315080053C05FF800F0556B02905FF800F03D6B0290B5
S315080053D0002313B50C4601AA01461048019300F0B4
S315080053E08FFE019BBBB934B90D4B53F8200000F072
S315080053F01FF802B010BD1C2803D1204604F098F807
S31508005400F7E71B2803D12046FCF7D2FEF1E705484B
S3150800541000F012F8EDE70448FAE700BF9804002404
S31508005420A449039090D60290B4D6029000000000DA
S315080054305FF800F0A56C02905FF800F0596C0290D6
S3150800544007B50A4A135CFF2B1CBF0133135449B92D
S31508005450135C0122CDE9000305481146054B407847
S3150800546001F01AF903B05DF804FB00BF00008038AC
S30D080054707D290024F4D6029000
